{
  "contractName": "Election",
  "abi": [
    {
      "anonymous": false,
      "inputs": [
        {
          "indexed": true,
          "internalType": "uint256",
          "name": "_electionId",
          "type": "uint256"
        },
        {
          "indexed": true,
          "internalType": "uint256",
          "name": "_candidateId",
          "type": "uint256"
        },
        {
          "indexed": false,
          "internalType": "string",
          "name": "_name",
          "type": "string"
        }
      ],
      "name": "CandidateAdded",
      "type": "event"
    },
    {
      "anonymous": false,
      "inputs": [
        {
          "indexed": true,
          "internalType": "uint256",
          "name": "_electionId",
          "type": "uint256"
        },
        {
          "indexed": false,
          "internalType": "string",
          "name": "_name",
          "type": "string"
        },
        {
          "indexed": false,
          "internalType": "address",
          "name": "_creator",
          "type": "address"
        }
      ],
      "name": "ElectionCreated",
      "type": "event"
    },
    {
      "anonymous": false,
      "inputs": [
        {
          "indexed": true,
          "internalType": "uint256",
          "name": "_electionId",
          "type": "uint256"
        },
        {
          "indexed": true,
          "internalType": "uint256",
          "name": "_candidateId",
          "type": "uint256"
        },
        {
          "indexed": false,
          "internalType": "address",
          "name": "_voter",
          "type": "address"
        }
      ],
      "name": "VotedEvent",
      "type": "event"
    },
    {
      "inputs": [
        {
          "internalType": "uint256",
          "name": "",
          "type": "uint256"
        },
        {
          "internalType": "uint256",
          "name": "",
          "type": "uint256"
        }
      ],
      "name": "candidates",
      "outputs": [
        {
          "internalType": "uint256",
          "name": "id",
          "type": "uint256"
        },
        {
          "internalType": "string",
          "name": "name",
          "type": "string"
        },
        {
          "internalType": "uint256",
          "name": "voteCount",
          "type": "uint256"
        }
      ],
      "stateMutability": "view",
      "type": "function",
      "constant": true
    },
    {
      "inputs": [
        {
          "internalType": "uint256",
          "name": "",
          "type": "uint256"
        }
      ],
      "name": "elections",
      "outputs": [
        {
          "internalType": "uint256",
          "name": "id",
          "type": "uint256"
        },
        {
          "internalType": "string",
          "name": "name",
          "type": "string"
        },
        {
          "internalType": "string",
          "name": "description",
          "type": "string"
        },
        {
          "internalType": "uint256",
          "name": "startDate",
          "type": "uint256"
        },
        {
          "internalType": "uint256",
          "name": "endDate",
          "type": "uint256"
        },
        {
          "internalType": "address",
          "name": "creator",
          "type": "address"
        },
        {
          "internalType": "uint256",
          "name": "candidatesCount",
          "type": "uint256"
        },
        {
          "internalType": "bool",
          "name": "active",
          "type": "bool"
        }
      ],
      "stateMutability": "view",
      "type": "function",
      "constant": true
    },
    {
      "inputs": [],
      "name": "electionsCount",
      "outputs": [
        {
          "internalType": "uint256",
          "name": "",
          "type": "uint256"
        }
      ],
      "stateMutability": "view",
      "type": "function",
      "constant": true
    },
    {
      "inputs": [
        {
          "internalType": "uint256",
          "name": "",
          "type": "uint256"
        },
        {
          "internalType": "address",
          "name": "",
          "type": "address"
        }
      ],
      "name": "voters",
      "outputs": [
        {
          "internalType": "bool",
          "name": "",
          "type": "bool"
        }
      ],
      "stateMutability": "view",
      "type": "function",
      "constant": true
    },
    {
      "inputs": [
        {
          "internalType": "string",
          "name": "_name",
          "type": "string"
        },
        {
          "internalType": "string",
          "name": "_description",
          "type": "string"
        },
        {
          "internalType": "uint256",
          "name": "_startDate",
          "type": "uint256"
        },
        {
          "internalType": "uint256",
          "name": "_endDate",
          "type": "uint256"
        }
      ],
      "name": "createElection",
      "outputs": [],
      "stateMutability": "nonpayable",
      "type": "function"
    },
    {
      "inputs": [
        {
          "internalType": "uint256",
          "name": "_electionId",
          "type": "uint256"
        },
        {
          "internalType": "string",
          "name": "_name",
          "type": "string"
        }
      ],
      "name": "addCandidateToElection",
      "outputs": [],
      "stateMutability": "nonpayable",
      "type": "function"
    },
    {
      "inputs": [
        {
          "internalType": "uint256",
          "name": "_electionId",
          "type": "uint256"
        },
        {
          "internalType": "uint256",
          "name": "_candidateId",
          "type": "uint256"
        }
      ],
      "name": "vote",
      "outputs": [],
      "stateMutability": "nonpayable",
      "type": "function"
    },
    {
      "inputs": [
        {
          "internalType": "uint256",
          "name": "_electionId",
          "type": "uint256"
        },
        {
          "internalType": "uint256",
          "name": "_candidateId",
          "type": "uint256"
        }
      ],
      "name": "getCandidate",
      "outputs": [
        {
          "internalType": "uint256",
          "name": "",
          "type": "uint256"
        },
        {
          "internalType": "string",
          "name": "",
          "type": "string"
        },
        {
          "internalType": "uint256",
          "name": "",
          "type": "uint256"
        }
      ],
      "stateMutability": "view",
      "type": "function",
      "constant": true
    },
    {
      "inputs": [
        {
          "internalType": "uint256",
          "name": "_electionId",
          "type": "uint256"
        }
      ],
      "name": "getElection",
      "outputs": [
        {
          "internalType": "uint256",
          "name": "",
          "type": "uint256"
        },
        {
          "internalType": "string",
          "name": "",
          "type": "string"
        },
        {
          "internalType": "string",
          "name": "",
          "type": "string"
        },
        {
          "internalType": "uint256",
          "name": "",
          "type": "uint256"
        },
        {
          "internalType": "uint256",
          "name": "",
          "type": "uint256"
        },
        {
          "internalType": "address",
          "name": "",
          "type": "address"
        },
        {
          "internalType": "uint256",
          "name": "",
          "type": "uint256"
        },
        {
          "internalType": "bool",
          "name": "",
          "type": "bool"
        }
      ],
      "stateMutability": "view",
      "type": "function",
      "constant": true
    },
    {
      "inputs": [
        {
          "internalType": "uint256",
          "name": "_electionId",
          "type": "uint256"
        },
        {
          "internalType": "address",
          "name": "_voter",
          "type": "address"
        }
      ],
      "name": "hasVoted",
      "outputs": [
        {
          "internalType": "bool",
          "name": "",
          "type": "bool"
        }
      ],
      "stateMutability": "view",
      "type": "function",
      "constant": true
    },
    {
      "inputs": [
        {
          "internalType": "uint256",
          "name": "_electionId",
          "type": "uint256"
        }
      ],
      "name": "isElectionActive",
      "outputs": [
        {
          "internalType": "bool",
          "name": "",
          "type": "bool"
        }
      ],
      "stateMutability": "view",
      "type": "function",
      "constant": true
    }
  ],
  "bytecode": "0x608060405234801561001057600080fd5b506112d7806100206000396000f3fe608060405234801561001057600080fd5b50600436106100a95760003560e01c80637ad36e84116100715780637ad36e84146101485780637de142421461015b5780639a74c6951461016e5780639d710777146101835780639e31906314610196578063b384abef146101a9576100a9565b806343859632146100ae5780634bd46448146100d75780635e6fef01146100f957806368ff92f4146101205780636ee17f6f14610135575b600080fd5b6100c16100bc366004610dbd565b6101bc565b6040516100ce9190610ebc565b60405180910390f35b6100ea6100e5366004610e3c565b6101e7565b6040516100ce93929190611200565b61010c610107366004610da5565b6102d1565b6040516100ce98979695949392919061119b565b61013361012e366004610df7565b61042f565b005b6100c1610143366004610da5565b610589565b610133610156366004610d34565b6105de565b6100ea610169366004610e3c565b61075d565b61017661080f565b6040516100ce9190611192565b61010c610191366004610da5565b610815565b6100c16101a4366004610dbd565b610a1d565b6101336101b7366004610e3c565b610a3d565b60009182526002602090815260408084206001600160a01b0393909316845291905290205460ff1690565b60008281526001602081815260408084208585528252808420815160608181019093528154815293810180549294869485949193929084019161022990611229565b80601f016020809104026020016040519081016040528092919081815260200182805461025590611229565b80156102a25780601f10610277576101008083540402835291602001916102a2565b820191906000526020600020905b81548152906001019060200180831161028557829003601f168201915b505050918352505060029190910154602091820152815190820151604090920151909891975095509350505050565b600060208190529081526040902080546001820180549192916102f390611229565b80601f016020809104026020016040519081016040528092919081815260200182805461031f90611229565b801561036c5780601f106103415761010080835404028352916020019161036c565b820191906000526020600020905b81548152906001019060200180831161034f57829003601f168201915b50505050509080600201805461038190611229565b80601f01602080910402602001604051908101604052809291908181526020018280546103ad90611229565b80156103fa5780601f106103cf576101008083540402835291602001916103fa565b820191906000526020600020905b8154815290600101906020018083116103dd57829003601f168201915b5050506003840154600485015460058601546006870154600790970154959692959194506001600160a01b0316925060ff1688565b6000828152602081905260409020546104635760405162461bcd60e51b815260040161045a90610fe3565b60405180910390fd5b6000828152602081905260409020600501546001600160a01b0316331461049c5760405162461bcd60e51b815260040161045a90611051565b60008151116104bd5760405162461bcd60e51b815260040161045a90610f0b565b60008281526020819052604081206006018054916104da83611264565b90915550506000828152602081815260408083206006015481516060810183528181528084018681528184018690528786526001808652848720848852865293909520815181559451805192959194919361053d93908501929190910190610c1a565b506040820151816002015590505080837fed8911b3df733b7d5f75724158e54478ea12e30f49c9d31b5261879f5b76586f8460405161057c9190610ec7565b60405180910390a3505050565b6000818152602081905260408120546105a4575060006105d9565b60008281526020819052604090206003015442108015906105d657506000828152602081905260409020600401544211155b90505b919050565b60008451116105ff5760405162461bcd60e51b815260040161045a90610fae565b81811161061e5760405162461bcd60e51b815260040161045a9061114f565b6003805490600061062e83611264565b90915550506003546040805161010081018252828152602080820188815282840188905260608301879052608083018690523360a0840152600060c08401819052600160e0850181905286825281845294902083518155905180519394919361069f93928501929190910190610c1a565b50604082015180516106bb916002840191602090910190610c1a565b50606082015160038201556080820151600482015560a08201516005820180546001600160a01b0319166001600160a01b0390921691909117905560c0820151600682015560e0909101516007909101805460ff191691151591909117905560405181907f86a3370600c4089c572e5fa1f974825253da2be6295eb9e0eef3423aebd991b09061074e9088903390610ee1565b60405180910390a25050505050565b600160208181526000938452604080852090915291835291208054918101805461078690611229565b80601f01602080910402602001604051908101604052809291908181526020018280546107b290611229565b80156107ff5780601f106107d4576101008083540402835291602001916107ff565b820191906000526020600020905b8154815290600101906020018083116107e257829003601f168201915b5050505050908060020154905083565b60035481565b60006060806000806000806000806000808b8152602001908152602001600020604051806101000160405290816000820154815260200160018201805461085b90611229565b80601f016020809104026020016040519081016040528092919081815260200182805461088790611229565b80156108d45780601f106108a9576101008083540402835291602001916108d4565b820191906000526020600020905b8154815290600101906020018083116108b757829003601f168201915b505050505081526020016002820180546108ed90611229565b80601f016020809104026020016040519081016040528092919081815260200182805461091990611229565b80156109665780601f1061093b57610100808354040283529160200191610966565b820191906000526020600020905b81548152906001019060200180831161094957829003601f168201915b5050505050815260200160038201548152602001600482015481526020016005820160009054906101000a90046001600160a01b03166001600160a01b03166001600160a01b03168152602001600682015481526020016007820160009054906101000a900460ff1615151515815250509050806000015181602001518260400151836060015184608001518560a001518660c001518760e001519850985098509850985098509850985050919395975091939597565b600260209081526000928352604080842090915290825290205460ff1681565b600060035411610a5f5760405162461bcd60e51b815260040161045a906110e1565b600082815260208190526040902054610a8a5760405162461bcd60e51b815260040161045a90610fe3565b60008281526020819052604090206007015460ff16610abb5760405162461bcd60e51b815260040161045a90610f40565b600082815260026020908152604080832033845290915290205460ff1615610af55760405162461bcd60e51b815260040161045a9061109a565b600081118015610b1657506000828152602081905260409020600601548111155b610b325760405162461bcd60e51b815260040161045a9061101a565b600082815260208190526040902060030154421015610b635760405162461bcd60e51b815260040161045a90610f77565b600082815260208190526040902060040154421115610b945760405162461bcd60e51b815260040161045a90611118565b60008281526002602081815260408084203385528252808420805460ff191660019081179091558685528252808420858552909152822001805491610bd883611264565b919050555080827fa92488a846cbc7e511339a7e2070b9e7ea296f1a18b3f416889e689a9c16c26a33604051610c0e9190610ea8565b60405180910390a35050565b828054610c2690611229565b90600052602060002090601f016020900481019282610c485760008555610c8e565b82601f10610c6157805160ff1916838001178555610c8e565b82800160010185558215610c8e579182015b82811115610c8e578251825591602001919060010190610c73565b50610c9a929150610c9e565b5090565b5b80821115610c9a5760008155600101610c9f565b600082601f830112610cc3578081fd5b813567ffffffffffffffff80821115610cde57610cde61128b565b604051601f8301601f191681016020018281118282101715610d0257610d0261128b565b604052828152848301602001861015610d19578384fd5b82602086016020830137918201602001929092529392505050565b60008060008060808587031215610d49578384fd5b843567ffffffffffffffff80821115610d60578586fd5b610d6c88838901610cb3565b95506020870135915080821115610d81578485fd5b50610d8e87828801610cb3565b949794965050505060408301359260600135919050565b600060208284031215610db6578081fd5b5035919050565b60008060408385031215610dcf578182fd5b8235915060208301356001600160a01b0381168114610dec578182fd5b809150509250929050565b60008060408385031215610e09578182fd5b82359150602083013567ffffffffffffffff811115610e26578182fd5b610e3285828601610cb3565b9150509250929050565b60008060408385031215610e4e578182fd5b50508035926020909101359150565b60008151808452815b81811015610e8257602081850181015186830182015201610e66565b81811115610e935782602083870101525b50601f01601f19169290920160200192915050565b6001600160a01b0391909116815260200190565b901515815260200190565b600060208252610eda6020830184610e5d565b9392505050565b600060408252610ef46040830185610e5d565b905060018060a01b03831660208301529392505050565b6020808252818101527f54656e20756e67206375207669656e206b686f6e672064756f632074726f6e67604082015260600190565b6020808252601f908201527f43756f6320626175206375206b686f6e6720636f6e20686f617420646f6e6700604082015260600190565b60208082526018908201527f43756f6320626175206375206368756120626174206461750000000000000000604082015260600190565b6020808252818101527f54656e2063756f6320626175206375206b686f6e672064756f632074726f6e67604082015260600190565b60208082526019908201527f43756f6320626175206375206b686f6e6720746f6e2074616900000000000000604082015260600190565b60208082526019908201527f556e67206375207669656e206b686f6e6720746f6e2074616900000000000000604082015260600190565b60208082526029908201527f436869206e67756f692074616f206d6f6920636f20746865207468656d20756e604082015268339031ba903b34b2b760b91b606082015260800190565b60208082526027908201527f42616e20646120626f2070686965752063686f2063756f6320626175206375206040820152666e617920726f6960c81b606082015260800190565b60208082526017908201527f4368756120636f2063756f6320626175206375206e616f000000000000000000604082015260600190565b60208082526017908201527f43756f6320626175206375206461206b65742074687563000000000000000000604082015260600190565b60208082526023908201527f4e676179206b65742074687563207068616920736175206e676179206261742060408201526264617560e81b606082015260800190565b90815260200190565b60006101008a83528060208401526111b58184018b610e5d565b905082810360408401526111c9818a610e5d565b6060840198909852505060808101949094526001600160a01b039290921660a084015260c0830152151560e0909101529392505050565b6000848252606060208301526112196060830185610e5d565b9050826040830152949350505050565b60028104600182168061123d57607f821691505b6020821081141561125e57634e487b7160e01b600052602260045260246000fd5b50919050565b600060001982141561128457634e487b7160e01b81526011600452602481fd5b5060010190565b634e487b7160e01b600052604160045260246000fdfea26469706673582212203219f6e0569633e44143a10a2ecef0dca2fb8c2961f1c64afb42afcfb7b613ad64736f6c63430008000033",
  "immutableReferences": {},
  "source": "// contracts/Election.sol\r\npragma solidity ^0.8.0;\r\n\r\ncontract Election {\r\n    struct Candidate {\r\n        uint id;\r\n        string name;\r\n        uint voteCount;\r\n    }\r\n    \r\n    struct ElectionStruct {\r\n        uint id;\r\n        string name;\r\n        string description;\r\n        uint startDate;\r\n        uint endDate;\r\n        address creator;\r\n        uint candidatesCount;\r\n        bool active;\r\n    }\r\n    \r\n    mapping(uint => ElectionStruct) public elections;\r\n    mapping(uint => mapping(uint => Candidate)) public candidates; // electionId => candidateId => Candidate\r\n    mapping(uint => mapping(address => bool)) public voters; // electionId => voterAddress => hasVoted\r\n    \r\n    uint public electionsCount;\r\n    \r\n    event ElectionCreated (\r\n        uint indexed _electionId,\r\n        string _name,\r\n        address _creator\r\n    );\r\n    \r\n    event CandidateAdded (\r\n        uint indexed _electionId,\r\n        uint indexed _candidateId,\r\n        string _name\r\n    );\r\n    \r\n    event VotedEvent (\r\n        uint indexed _electionId,\r\n        uint indexed _candidateId,\r\n        address _voter\r\n    );\r\n\r\n    \r\n    \r\n    function createElection(string memory _name, string memory _description, uint _startDate, uint _endDate) public {\r\n        require(bytes(_name).length > 0, \"Ten cuoc bau cu khong duoc trong\");\r\n        require(_endDate > _startDate, \"Ngay ket thuc phai sau ngay bat dau\");\r\n        \r\n        electionsCount++;\r\n        uint electionId = electionsCount;\r\n        \r\n        elections[electionId] = ElectionStruct(\r\n            electionId,\r\n            _name,\r\n            _description,\r\n            _startDate,\r\n            _endDate,\r\n            msg.sender,\r\n            0,\r\n            true\r\n        );\r\n        \r\n        emit ElectionCreated(electionId, _name, msg.sender);\r\n    }\r\n    \r\n    function addCandidateToElection(uint _electionId, string memory _name) public {\r\n        require(elections[_electionId].id != 0, \"Cuoc bau cu khong ton tai\");\r\n        require(elections[_electionId].creator == msg.sender, \"Chi nguoi tao moi co the them ung cu vien\");\r\n        require(bytes(_name).length > 0, \"Ten ung cu vien khong duoc trong\");\r\n        \r\n        elections[_electionId].candidatesCount++;\r\n        uint candidateId = elections[_electionId].candidatesCount;\r\n        \r\n        candidates[_electionId][candidateId] = Candidate(candidateId, _name, 0);\r\n        \r\n        emit CandidateAdded(_electionId, candidateId, _name);\r\n    }\r\n    \r\n    function vote(uint _electionId, uint _candidateId) public {\r\n        require(electionsCount > 0, \"Chua co cuoc bau cu nao\");\r\n        require(elections[_electionId].id != 0, \"Cuoc bau cu khong ton tai\");\r\n        \r\n        require(elections[_electionId].active, \"Cuoc bau cu khong con hoat dong\");\r\n        require(!voters[_electionId][msg.sender], \"Ban da bo phieu cho cuoc bau cu nay roi\");\r\n        require(_candidateId > 0 && _candidateId <= elections[_electionId].candidatesCount, \"Ung cu vien khong ton tai\");\r\n        require(block.timestamp >= elections[_electionId].startDate, \"Cuoc bau cu chua bat dau\");\r\n        require(block.timestamp <= elections[_electionId].endDate, \"Cuoc bau cu da ket thuc\");\r\n        \r\n        voters[_electionId][msg.sender] = true;\r\n        candidates[_electionId][_candidateId].voteCount++;\r\n        \r\n        emit VotedEvent(_electionId, _candidateId, msg.sender);\r\n    }\r\n    \r\n    function getCandidate(uint _electionId, uint _candidateId) public view returns (uint, string memory, uint) {\r\n        Candidate memory candidate = candidates[_electionId][_candidateId];\r\n        return (candidate.id, candidate.name, candidate.voteCount);\r\n    }\r\n    \r\n    function getElection(uint _electionId) public view returns (uint, string memory, string memory, uint, uint, address, uint, bool) {\r\n        ElectionStruct memory election = elections[_electionId];\r\n        return (election.id, election.name, election.description, election.startDate, election.endDate, election.creator, election.candidatesCount, election.active);\r\n    }\r\n    \r\n    function hasVoted(uint _electionId, address _voter) public view returns (bool) {\r\n        return voters[_electionId][_voter];\r\n    }\r\n    \r\n    function isElectionActive(uint _electionId) public view returns (bool) {\r\n        if (elections[_electionId].id == 0) return false;\r\n        return block.timestamp >= elections[_electionId].startDate && block.timestamp <= elections[_electionId].endDate;\r\n    }\r\n}",
  "sourcePath": "D:\\DH22tin01\\Y4_HKII_2025\\BlockChain\\Voting-dapp\\contracts\\Election.sol",
  "compiler": {
    "name": "solc",
    "version": "0.8.0+commit.c7dfd78e.Emscripten.clang"
  },
  "schemaVersion": "3.4.16",
  "updatedAt": "2026-02-05T17:01:59.520Z",
  "networkType": "ethereum",
  "devdoc": {
    "kind": "dev",
    "methods": {},
    "version": 1
  },
  "userdoc": {
    "kind": "user",
    "methods": {},
    "version": 1
  }
}